:020000040800F2
:10000000280500201D520008F1020008F302000834
:10001000F5020008F7020008F902000800000000DD
:10002000000000000000000000000000FB020008CB
:10003000FD02000800000000FF02000801030008A4
:10004000375200083752000837520008375200086C
:10005000375200083752000837520008375200085C
:10006000375200083752000837520008375200084C
:10007000375200083752000837520008375200083C
:10008000375200083752000837520008375200082C
:10009000375200083752000837520008375200081C
:1000A000375200083752000837520008375200080C
:1000B0003752000837520008A54F00083752000891
:1000C00037520008375200083752000837520008EC
:1000D00037520008C94E0008DF51000837520008A7
:1000E00059500008375200083752000837520008AC
:1000F00037520008375200083752000837520008BC
:1001000037520008375200083752000837520008AB
:10011000375200083752000837520008375200089B
:10012000375200083752000837520008375200088B
:10013000DFF810D007F006FB00480047490100082F
:10014000AFF30080280500201CB504F01BFE4FF41F
:10015000E13004F06DFE4FF4A06005F071F800F09E
:100160008BF900F064FF00F0AFF9454E4FF478488A
:10017000A6F800804FF6FF7000F027FF04F09EFD08
:1001800004F055FD00273F4DDFF8FCB04FF0180993
:1001900010244FF0663AA6F800803CA0CDE900900C
:1001A0001823D2222821322004F072FC3BA0CDE992
:1001B00000401023C82246215A2004F069FC04F0B4
:1001C000B8FD288007F05FF952465B4607F07AF8E1
:1001D0000022354B07F0E8F807F0A2F9686007F055
:1001E0008CF9324A324B07F06AF8324A324B07F048
:1001F000DBF80022314B06F0BEFF0022304B07F047
:100200005BF807F08DF9A8602EA0CDE9004010231F
:10021000C82264210A2004F03BFCA86807F040F9DA
:10022000CDE900470246042364216E2004F0D5FB8B
:1002300028A0CDE900401023C8226421962004F0B4
:1002400027FC04F087FD688025A0CDE9004010233D
:10025000C82282210A2004F01BFCCDE900470423B8
:100260006A8882216E2004F0B8FB20A0CDE900400E
:100270001023C8228221962004F00AFC8BE700009C
:10028000220000200000002066660A4046696E6178
:100290006C2050726F6A6563740000003230323433
:1002A0002F332F333000000000FEAF40E17A14AE50
:1002B00047E1F63F22FDF675E09C713F00003940B2
:1002C0000000204074656D70657261747572653AE6
:1002D0000000000043656E74696772616465000028
:1002E00070726573737572653A000000707369000F
:1002F0007047FEE7FEE7FEE7FEE77047704770478E
:10030000704700000CB5002201920092524801682B
:1003100041F4803101604FF4A063016801F40031C1
:1003200000910199491C0191009911B901999942D3
:10033000F3D10168890302D50121009100E0009208
:100340000099012930D145490A6842F010020A603B
:100350000A6822F003020A600A6842F002020A6098
:100360004168416041684160416841F48061416099
:10037000416821F47C114160416841F4E811416019
:10038000016841F08071016001688901FCD5416814
:1003900021F003014160416841F002014160416880
:1003A000C1F381010229FAD10CBDABE710B52A488F
:1003B000016841F0010101604168294A1140416032
:1003C0000168284A11400160016821F48021016020
:1003D000416821F4FE0141604FF41F018160FFF785
:1003E000E4FF21494FF00060086010BD10B51A4AC3
:1003F000506800F00C011D4B1D4800290ED0042947
:100400000ED008290ED003605168194AC1F30311B8
:10041000121D515C0268CA40026010BD0360F3E720
:100420000360F1E7516801F47011536803F48033FD
:10043000022404EB914133B153689B0307D50D4B64
:1004400059430160E0E70B4B59430160DCE7074B80
:1004500059430160D8E7000000100240002002402C
:100460000000FFF8FFFFF6FE08ED00E000127A0042
:100470000C00002000093D0038B50121482005F09E
:1004800006FC2024ADF8004010208DF80300032066
:100490008DF802000A4D6946284605F0F2F9202140
:1004A000284605F05DFAADF80040064C6946204646
:1004B00005F0E7F92021204605F052FA38BD00008A
:1004C000000C01400018014008B50121442005F04E
:1004D000DEFB1820ADF8000048208DF803006946C7
:1004E0002D4805F0CEF90120ADF8000028208DF848
:1004F00003006946294805F0C4F908BD2DE9F0411B
:100500000125274C002800D025702078234E224F4B
:1005100078B11021384605F00FFA88B10821384625
:1005200005F00AFA60B10121304605F005FA01280C
:1005300006D01021384605F0FFF901281DD028E02B
:100540000A2004F04DFC002020701021384605F0F0
:10055000F3F958B10821384605F0EEF948B1012108
:10056000304605F0E9F9012805D012E00120BDE888
:10057000F0810220FBE70320F9E70821384605F067
:10058000DBF9012805D10121304605F0D5F900B984
:1005900025700020EBE70000001801400008014032
:1005A00020000020F74908807047F649891C088020
:1005B000704708B5F348801C00880090BDF8000023
:1005C00008BDF04A1080901C0180704710B5FFF7FD
:1005D000E9FF052004F0EDFBBDE81040E9E7EA483B
:1005E000E849008908807047E649891C08807047FF
:1005F000C0F34511C20AC00200EB4110104480B2A2
:100600007047401EC0B2FCD270472DE9F04102464F
:100610000B46DD4E1F0A3046B1884089A1F51344D0
:100620004FEA1228413C1AD0A1F5A644103C16D03E
:100630003446A1F5D04CA5792488A41A641EBCF1D7
:10064000040C1ED0A1F5C85CBCF1630C2ED0A1F542
:10065000A04CBCF5A26C62D0012D7DD07DE0FFF7EF
:10066000A1FF4046FFF7A1FFD0B2FFF79EFFB08980
:10067000FFF798FF3846FFF798FFBDE8F041D8B282
:1006800093E7012D00D1A2B2FFF78CFF100AFFF70C
:100690008CFFD0B2FFF789FFB089FFF783FF3846A0
:1006A000FFF783FFBDE8F041D8B27EE73DB3FFF727
:1006B00079FF4046FFF779FFD0B2FFF776FF308829
:1006C000401EC0F30F20FFF770FF3078401EC0B20D
:1006D000FFF76BFFB089FFF765FF3846FFF765FF4F
:1006E000D8B2FFF762FF7088401EC0F30F20FFF7FB
:1006F0005CFFB078BDE8F041401EC0B255E7A2B241
:10070000FFF750FF0020FFF750FF0020FFF74DFFDD
:10071000100AFFF74AFFD0B2FFF747FFDAE7FFF70B
:1007200041FF4046FFF741FF7089401C80B2FFF750
:1007300039FFD0B2FFF739FFB089FFF733FF3846F2
:10074000FFF733FFB089401C80B2FFF72BFFBDE8F5
:10075000F041D8B229E7FFE7A2B21146FFF731FF17
:10076000B089BDE8F04119462BE72DE9F04300249C
:100770000027DFF81482B8F80020824203D9B8F8C5
:1007800002208A4202D80020BDE8F083FFF73DFF37
:10079000B8F8040049F2413941F6631245F21035C8
:1007A00045F21056484507D0A0F5D041043903D092
:1007B000A84201D0904203D12E20FFF7F3FE09E0BA
:1007C000B04204D14FF43850FFF7ECFE02E0222093
:1007D000FFF7E8FEB8F80400A0F51341203902D174
:1007E0000220FFF70EFFFFF7E4FEB8F80410914275
:1007F000CAD00220FFF705FFFFF7DBFE0246B8F87C
:100800000400484503D0A84201D0B0420AD10220DA
:10081000FFF7F7FEFFF7CDFE0746D0B24FF6FF71A8
:1008200001EA0024B8F80410A1F5134025381DD0C2
:10083000A1F58A40353819D0A1F58A40313815D054
:10084000A1F53540053811D0A1F5454005380DD04A
:10085000494503D0A94201D0B14209D1D00AC00212
:10086000A10A40EA411040EAD7208DE710468BE705
:10087000BDE8F0431046BBE643488088A0F513412D
:10088000413913D0A0F5D04104390FD0A0F5A641CD
:1008900010390BD0A0F5C851633907D0A0F5AA4193
:1008A000103905D040F2731107208AE6292079E635
:1008B0004FF4245076E634488088A0F5134141393E
:1008C00012D0A0F5D04104390ED0A0F5A6411039C0
:1008D0000AD0A0F5C851633906D0A0F5AA41103955
:1008E00004D0002107206CE628205BE64FF420505E
:1008F00058E6F0B50023244C46F604072146A279B9
:10090000898841F66315012A03D1B94201D0A94271
:1009100002D1C2B9A94216D1082814D2DFE800F0EA
:100920000406080A0C0E101206200CE007200AE04C
:10093000042008E0052006E0012004E0002002E099
:10094000032000E00220A1F5134C45F2103245F2DD
:100950001056BCF1410C07D0B94205D0914203D0EA
:10096000B14201D0A9427CD1082816D2DFE800F0BC
:10097000150406080E10121480230EE040230CE02C
:10098000C0230AE0FE07006C4C000020202304E096
:10099000602302E0A02300E0E023B14202D14FF443
:1009A000585000E03620914205D0B14203D0A94210
:1009B00001D043F00803B94201D143F002031946C4
:1009C000FFF7FFFDA288AA420ED0980606D5208820
:1009D0006188884208D22180608005E02088618893
:1009E000884201D921806080B24248D16089FFF7F6
:1009F000D9FD0020FFF7D9FD6089401C80B2FFF7C8
:100A0000D1FD0020FFF7D1FD6089801C80B2FFF787
:100A1000C9FD2088401EC0F30F20FFF7C6FD608986
:100A2000C01C80B2FFF7BEFD2078401EC0B2FFF7A9
:100A3000BCFDA089FFF7B6FD0020FFF7B6FDA08939
:100A4000401C80B2FFF7AEFD0020FFF7AEFDA0898D
:100A5000801C80B2FFF7A6FD6088401EC0F30F2007
:100A600000E035E0FFF7A1FDA089C01C80B2FFF7D0
:100A700099FDA078BDE8F040401EC0B295E56089C0
:100A8000FFF790FD0020FFF790FD0020FFF78DFDA0
:100A90002088401EC0F30F20FFF787FD2078401EFE
:100AA000C0B2FFF782FDA089FFF77CFD0020FFF7B1
:100AB0007CFD0020FFF779FD6088401EC0F30F2009
:100AC000FFF773FDA078BDE8F040401EC0B26CE5B2
:100AD000082812D2DFE800F0040608110A0C0E10F4
:100AE00030230AE0102308E0202306E0382304E046
:100AF000282302E0182300E00823032043F4805158
:100B0000BDE8F0405DE500B5FFF77FFDFFF767FD4D
:100B1000FE48FF490088088000BD2DE9F0410346EA
:100B20000C469046FB4F220A3846B9881D0A408978
:100B3000A1F51346413E19D0A1F5A646103E15D0A9
:100B4000A1F5AA46103E23D03D46A1F5C85CAE797A
:100B50002D88ED1A6D1EBCF1630C35D0A1F5D04C7B
:100B6000BCF1040C51D0012E64D064E0FFF71AFDF3
:100B70002846FFF71AFDD8B2FFF717FDB889FFF72F
:100B800011FD1046FFF711FDE0B2FFF70EFD59E031
:100B9000FFF708FD2846FFF708FD7889401C80B262
:100BA000FFF700FDD8B2FFF700FDB889FFF7FAFCA8
:100BB0001046FFF7FAFCB889401C80B2FFF7F2FC40
:100BC000E0B2FFF7F2FC3DE006B9ABB2FFF7EAFC9A
:100BD0001D0A2846FFF7E9FCD8B2FFF7E6FC2846D5
:100BE000FFF7E3FCD8B2FFF7E0FCB889FFF7DAFCC7
:100BF0001046FFF7DAFCE0B2FFF7D7FC1046FFF72C
:100C0000D4FCE0B2FFF7D1FC1CE0012E00D1ABB266
:100C1000FFF7C8FC180AFFF7C8FCD8B2FFF7C5FCFD
:100C2000B889FFF7BFFC1046FFF7BFFCE0B2FFF743
:100C3000BCFC07E0ABB21946FFF7C3FCB8892146FC
:100C4000FFF7BFFCB2493889891E0880881CA0F8CC
:100C50000080BDE8F08110B50246BE20FFF7A2FC7F
:100C60000520FFF7A2FC104606F00DFC4FF066329F
:100C7000A94B06F027FB06F027FC80B2FFF795FC96
:100C80000120FFF792FCFF20FFF78FFC0020FFF709
:100C90008CFCBDE81040002087E42DE9F04F9D4911
:100CA0002A232B24898845F2105C4FF430584FF4E6
:100CB00028594FF448754FF0F00A49F2413B4FF480
:100CC000A07745F210364FF4F072002810D091480A
:100CD0004FF0010E80F806E00780A0F802A0594509
:100CE00001D0B14240D12C250581438184815CE053
:100CF00088484FF0000E80F806E0A0F800A047807A
:100D0000594506D0A1F5D04ABAF1040A01D0B14242
:100D10000CD12C25058143818481A1F5D043043B6E
:100D200001D0B14249D10780428046E0614509D1F6
:100D3000A0F80880A0F80A904FF42C51818102801D
:100D400045803AE0A1F5C856633E06D022210181D4
:100D500020214181212181812FE02C2101814481A9
:100D600083810280458028E0A1F5D04ABAF1040AC7
:100D70000BD061450ED1A0F80880A0F80A904FF47E
:100D80002C538381058042800FE02C25058144810E
:100D900083810AE0A1F5C85CBCF1630C11D0222369
:100DA00003812123438120238381A1F5D043043B88
:100DB00001D0B14201D102804780BDE8F04F002050
:100DC00097E54FF02C0CA0F808C043818481058082
:100DD0004280EAE72DE9FC4F04460D46A018401E6C
:100DE00086B205EB030CACF1010C1FFA8CF3DFF8B3
:100DF00024E1A7187F1EBEF80400C7F30727019758
:100E0000270A00977746A0F513417F89CCF307287E
:100E10004FEA1529413910D0A0F5A64110390CD060
:100E2000A0F5D041043908D09EF806A041F6631B16
:100E3000BAF1010F22D1584520D172463846FFF74A
:100E4000B1FB0098FFF7B1FBE0B2FFF7AEFB0198F2
:100E5000FFF7ABFBF0B2FFF7A8FB9089FFF7A2FB0F
:100E60004846FFF7A2FBE8B2FFF79FFB4046FFF7BB
:100E70009CFBD8B2BDE8FC4FFFF797BB254958450E
:100E8000098828D1881A001B764683B21FFA8CF491
:100E90003846FFF787FB180AFFF787FBD8B2FFF742
:100EA00084FB1A44521EC2F30F20FFF77EFBD0B220
:100EB000FFF77BFBB089FFF775FB4846FFF775FB33
:100EC000E8B2FFF772FB200AFFF76FFBE0B2BDE864
:100ED000FC4FFFF76ABBA0F5A04C7246BCF5A26CB4
:100EE0002CD0BAF1010F67D0204637462E4650224B
:100EF0004FF051084FF052094FF0530A0146104687
:100F0000FFF75FFB3946404608E000002200002062
:100F10000008006C4C00002066660440FFF751FB9F
:100F200031464846FFF74DFB19465046FFF749FB4F
:100F300029462046BDE8FC4FFFF767BB3846FFF760
:100F400031FB0098FFF731FB5089401C80B2FFF75E
:100F500029FBE0B2FFF729FB5089801C80B2FFF724
:100F600021FB0198FFF721FB5089C01C80B2FFF7DD
:100F700019FBF0B2FFF719FB9089FFF713FB484606
:100F8000FFF713FB9089401C80B2FFF70BFBE8B220
:100F9000FFF70BFB9089801C80B2FFF703FB4046F4
:100FA000FFF703FB9089C01C80B2FFF7FBFAD8B2B1
:100FB000BDE8FC4FFFF7F9BA28461F468A1B521EB0
:100FC00096B2091B491E8BB291E72DE9F043064604
:100FD0000024FE4F38887D884543B888A0F5D0416D
:100FE000043902D1B879012807D000210846FFF75B
:100FF0000CFBFFF7F4FAF64916E00020B8714FF049
:101000002A09A7F80A904FF02B08A7F80C800021B6
:101010000846FFF7FAFA0120B871A7F80A80A7F886
:101020000C90E6E70E80641CAC42FBD31DE42DE976
:10103000F04F9FB001210D02284604F01DFE012152
:101040004FF4B47004F023FE4FF00108ADF878803F
:1010500010278DF87B7003248DF87A401EA9DD4897
:1010600004F00FFC4CF23370ADF8780018268DF8C0
:101070007B608DF87A401EA9D74804F002FC4FF639
:101080008070ADF878008DF87B608DF87A401EA9ED
:10109000D24804F0F6FB41F20100ADF878008DF87B
:1010A0007B608DF87A401EA9CD4804F0EAFBCDF8AC
:1010B0002080002009900F210A910B900C900D9038
:1010C0000E90019002900394049005900690079072
:1010D00006210F9110901190129713901590149073
:1010E0001690179029011891199089001A911B9058
:1010F00008A81C9001A81D900FA804F034F9012144
:10110000062004F064FA322003F06AFE0020FFF7A4
:101110005DFAAE4CA08049F2413946F6040A45F228
:10112000103B45F210564FF6FF77FF2804D3B84224
:1011300002D0B0F5134F78D1D320FFF733FAFFF781
:1011400038FAA080FFF735FAA080FFF732FA07EAF5
:101150000020A080FFF72DFAA1880843A080484511
:1011600063D0BF20FFF71EFAFFF723FAA080FFF736
:1011700020FAA080FFF71DFAA080FFF71AFA07EA0D
:101180000020A080FFF715FAA1880843A0805045F1
:101190004BD0D420FFF706FAFFF70BFAA080FFF739
:1011A00008FAA080FFF705FA07EA0020A080FFF701
:1011B00000FAA1880843A080584536D04FF45A4021
:1011C000FFF7F0F9FFF7F5F9A0804FF45B40FFF768
:1011D000E9F9FFF7EEF907EA0020A0804FF45C4040
:1011E000FFF7E0F9FFF7E5F9A1880843A080B0F523
:1011F000004F00D1A680A088B04216D0A120FFF7F2
:10120000D1F9FFF7D6F9A080FFF7D3F907EA00205C
:10121000A080FFF7CEF9A1880843A080A0F5AE41D9
:10122000613902D141F66310A080A1886DA006F05B
:101230009BFAA08848457CD1CF20FFF7B3F9002066
:10124000FFF7B3F9C120FFF7B0F93020FFF7ADF990
:10125000ED20FFF7A7F96420FFF7A7F90320FFF7B8
:10126000A4F91220FFF7A1F98120FFF79EF9E820E9
:10127000FFF798F98520FFF798F91020FFF795F907
:101280007A20FFF792F9CB20FFF78CF93920FFF78E
:101290008CF92C20FFF789F90020FFF786F934201C
:1012A000FFF783F90220FFF780F9F720FFF77AF9BB
:1012B0002020FFF77AF9EA20FFF774F90020FFF702
:1012C00074F90020FFF771F9C020FFF76BF91B20BC
:1012D000FFF76BF9C120FFF765F90120FFF765F90A
:1012E000C520FFF75FF93020FFF75FF93020FFF7E7
:1012F0005CF9C720FFF756F9B720FFF756F93620FB
:10130000FFF750F94820FFF750F93A20FFF74AF964
:101310005520FFF74AF9B120FFF744F90020FFF705
:1013200044F91A20FFF741F9B620FFF73BF90A20EC
:1013300000E0AEE0FFF739F9A220FFF736F9F2201E
:10134000FFF730F90020FFF730F92620FFF72AF9E0
:101350000120FFF72AF9E020FFF724F90F20FFF71B
:1013600024F92A20FFF721F92820FFF71EF9082089
:10137000FFF71BF90E20FFF718F90820FFF715F902
:101380005420FFF712F9A920FFF70FF94320FFF7C8
:101390000CF90A20FFF709F90F20FFF706F90020E2
:1013A000FFF703F90020FFF700F90020FFF7FDF831
:1013B0000020FFF7FAF8E120FFF7F4F80020FFF72C
:1013C000F4F81520FFF7F1F8172013E04C00002087
:1013D0000008006C000C014000140140001801409E
:1013E00000200140204C43442049443A25780D0A0E
:1013F00000000000FFF7D9F80720FFF7D6F811200A
:10140000FFF7D3F80620FFF7D0F82B20FFF7CDF831
:101410005620FFF7CAF83C20FFF7C7F80520FFF772
:10142000C4F81020FFF7C1F80F20FFF7BEF83F20E7
:10143000FFF7BBF83F20FFF7B8F80F20FFF7B5F82C
:101440002B20FFF7AFF80020FFF7AFF80020FFF7E1
:10145000ACF80120FFF7A9F83F20FFF7A6F82A20F3
:10146000FFF7A0F80020FFF7A0F80020FFF79DF895
:101470000020FFF79AF8EF20FFF797F81120FFF709
:1014800091F8782003F0ACFC2920FFF78BF803F0EB
:10149000BCB850457ED11120FFF784F8142003F02A
:1014A0009FFCD020FFF77EF80720FFF77EF8422050
:1014B000FFF77BF81D20FFF778F8D120FFF772F8CF
:1014C0000020FFF772F81A20FFF76FF80920FFF7E6
:1014D0006CF8D220FFF766F80120FFF766F82220AB
:1014E000FFF763F8C020FFF75DF81020FFF75DF805
:1014F0003B20FFF75AF80020FFF757F80220FFF7CC
:1015000054F81120FFF751F8C520FFF74BF80320DE
:10151000FFF74BF8C820FFF745F80020FFF745F824
:101520002520FFF742F82120FFF73FF80520FFF7BD
:101530003CF80020FFF739F80A20FFF736F865205D
:10154000FFF733F82520FFF730F87720FFF72DF865
:101550005020FFF72AF80F20FFF727F80020FFF7A9
:1015600024F8F820FFF71EF80120FFF71EF8FE20F0
:10157000FFF718F80020FFF718F80220FFF715F81A
:101580002020FFF70FF83620FFF70CF80820FFF7B0
:101590000CF800E02AE03A20FFF704F85520FFF7A6
:1015A00004F82B20FEF7FEFF0020FEF7FEFF0020D0
:1015B000FEF7FBFF0120FEF7F8FF3F20FEF7F5FFE7
:1015C0002A20FEF7EFFF0020FEF7EFFF0020FEF7D6
:1015D000ECFF0120FEF7E9FFDF20FEF7E6FF7820B1
:1015E00003F0FEFB2920FEF7DDFF50E758457CD1D4
:1015F000ED20FEF7D7FF0120FEF7D7FFFE20FEF714
:10160000D4FFEE20FEF7CEFFDE20FEF7CEFF212036
:10161000FEF7CBFFF120FEF7C5FF0120FEF7C5FF67
:10162000DF20FEF7BFFF1020FEF7BFFFC420FEF74C
:10163000B9FF8F20FEF7B9FFC620FEF7B3FF0020E9
:10164000FEF7B3FFE220FEF7B0FFE220FEF7ADFFAA
:10165000E220FEF7AAFFBF20FEF7A4FFAA20FEF7B4
:10166000A4FFB020FEF79EFF0D20FEF79EFF002096
:10167000FEF79BFF0D20FEF798FF0020FEF795FF79
:101680001120FEF792FF0020FEF78FFF1920FEF7D2
:101690008CFF0020FEF789FF2120FEF786FF002047
:1016A000FEF783FF2D20FEF780FF0020FEF77DFF71
:1016B0003D20FEF77AFF0020FEF777FF5D20FEF762
:1016C00074FF0020FEF771FF5D20FEF76EFF002023
:1016D000FEF76BFFB120FEF765FF8020FEF765FF88
:1016E0000020FEF762FF8B2000E0FCE3FEF75DFFC9
:1016F0000020FEF75AFF9620FEF757FF0020FEF766
:1017000054FFB220FEF74EFF0020FEF74EFF0020F0
:10171000FEF74BFF0220FEF748FF0020FEF745FFD3
:101720000320FEF742FF0020FEF73FFFB320FEF745
:1017300039FF0020FEF739FF0020FEF736FF0020BA
:10174000FEF733FF0020FEF730FF0020FEF72DFFED
:101750000020FEF72AFF0020FEF727FF0020FEF7FB
:1017600024FF0020FEF721FF0020FEF71EFF0020CF
:10177000FEF71BFF0020FEF718FF0020FEF715FF05
:101780000020FEF712FF0020FEF70FFF0020FEF7FB
:101790000CFF0020FEF709FF0020FEF706FF0020E7
:1017A000FEF703FF0020FEF700FF0020FEF7FDFE1E
:1017B0000020FEF7FAFE0020FEF7F7FE0020FEF7FD
:1017C000F4FEB420FEF7EEFE8B20FEF7EEFE0020C6
:1017D000FEF7EBFE9620FEF7E8FE0020FEF7E5FEA2
:1017E000A120FEF7E2FE0020FEF7DFFEB520FEF7A7
:1017F000D9FE0220FEF7D9FE0020FEF7D6FE032018
:10180000FEF7D3FE0020FEF7D0FE0420FEF7CDFE4B
:101810000020FEF7CAFEB620FEF7C4FE0020FEF749
:10182000C4FE0020FEF7C1FEB720FEF7BBFE00207D
:10183000FEF7BBFE0020FEF7B8FE3F20FEF7B5FE28
:101840000020FEF7B2FE5E20FEF7AFFE0020FEF79E
:10185000ACFE6420FEF7A9FE0020FEF7A6FE8C2059
:10186000FEF7A3FE0020FEF7A0FEAC20FEF79DFED3
:101870000020FEF79AFEDC20FEF797FE0020FEF720
:1018800094FE7020FEF791FE0020FEF78EFE902061
:10189000FEF78BFE0020FEF788FEEB20FEF785FEAC
:1018A0000020FEF782FEDC20FEF77FFE0020FEF720
:1018B0007CFEB820FEF776FE0020FEF776FE0020C4
:1018C000FEF773FE0020FEF770FE0020FEF76DFEAF
:1018D0000020FEF76AFE0020FEF767FE0020FEF7FC
:1018E00064FE0020FEF761FEBA20FEF75BFE2420B6
:1018F000FEF75BFE0020FEF758FE0020FEF755FEC7
:101900000020FEF752FEC120FEF74CFE2020FEF71D
:101910004CFE0020FEF749FE5420FEF746FE002054
:10192000FEF743FEFF20FEF740FE0020FEF73DFEDF
:10193000C220FEF737FE0A20FEF737FE0020FEF732
:1019400034FE0420FEF731FE0020FEF72EFEC320F9
:10195000FEF728FE3C20FEF728FE0020FEF725FEBD
:101960003A20FEF722FE0020FEF71FFE3920FEF788
:101970001CFE0020FEF719FE3720FEF716FE0020A1
:10198000FEF713FE3C20FEF710FE0020FEF70DFED2
:101990003620FEF70AFE0020FEF707FE3220FEF793
:1019A00004FE0020FEF701FE2F20FEF7FEFD0020C2
:1019B000FEF7FBFD2C20FEF7F8FD0020FEF7F5FDFD
:1019C0002920FEF7F2FD0020FEF7EFFD2620FEF7AE
:1019D000ECFD0020FEF7E9FD2420FEF7E6FD0020E7
:1019E000FEF7E3FD2420FEF7E0FD0020FEF7DDFD1D
:1019F0002320FEF7DAFD0020FEF7D7FD3C20FEF79E
:101A0000D4FD0020FEF7D1FD3620FEF7CEFD0020EC
:101A1000FEF7CBFD3220FEF7C8FD0020FEF7C5FD26
:101A20002F20FEF7C2FD0020FEF7BFFD2C20FEF7A1
:101A3000BCFD0020FEF7B9FD2920FEF7B6FD002011
:101A4000FEF7B3FD2620FEF7B0FD0020FEF7ADFD4A
:101A50002420FEF7AAFD0020FEF7A7FD2420FEF7B4
:101A6000A4FD0020FEF7A1FD2320FEF79EFD00202F
:101A7000FEF79BFDC420FEF795FD6220FEF795FD65
:101A80000020FEF792FD0520FEF78FFD0020FEF7F7
:101A90008CFD8420FEF789FD0020FEF786FDF020F6
:101AA000FEF783FD0020FEF780FD1820FEF77DFD88
:101AB0000020FEF77AFDA420FEF777FD0020FEF758
:101AC00074FD1820FEF771FD0020FEF76EFD50201A
:101AD000FEF76BFD0020FEF768FD0C20FEF765FDAC
:101AE0000020FEF762FD1720FEF75FFD0020FEF7E5
:101AF0005CFD9520FEF759FD0020FEF756FDF32012
:101B0000FEF753FD0020FEF750FDE620FEF74DFDE9
:101B10000020FEF74AFDC520FEF744FD3220FEF707
:101B200044FD0020FEF741FD4420FEF73EFD00206D
:101B3000FEF73BFD6520FEF738FD0020FEF735FD82
:101B40007620FEF732FD0020FEF72FFD8820FEF7FD
:101B50002CFD0020FEF729FDC620FEF723FD2020E6
:101B6000FEF723FD0020FEF720FD1720FEF71DFDE8
:101B70000020FEF71AFD0120FEF717FD0020FEF7FA
:101B800014FDC720FEF70EFD0020FEF70EFD00201D
:101B9000FEF70BFD0020FEF708FD0020FEF705FD17
:101BA000C820FEF7FFFC0020FEF7FFFC0020FEF738
:101BB000FCFC0020FEF7F9FC0020FEF7F6FCC92033
:101BC000FEF7F0FC0020FEF7F0FC0020FEF7EDFC35
:101BD0000020FEF7EAFC0020FEF7E7FC0020FEF7FD
:101BE000E4FC0020FEF7E1FC0020FEF7DEFC002014
:101BF000FEF7DBFC0020FEF7D8FC0020FEF7D5FC4A
:101C00000020FEF7D2FC0020FEF7CFFC0020FEF7FC
:101C1000CCFC0020FEF7C9FC0020FEF7C6FC00202B
:101C2000FEF7C3FCE020FEF7BDFC1620FEF7BDFC6E
:101C30000020FEF7BAFC1C20FEF7B7FC0020FEF7E0
:101C4000B4FC2120FEF7B1FC0020FEF7AEFC3620EC
:101C5000FEF7ABFC0020FEF7A8FC4620FEF7A5FC33
:101C60000020FEF7A2FC5220FEF79FFC0020FEF7AA
:101C70009CFC6420FEF799FC0020FEF796FC7A207D
:101C8000FEF793FC0020FEF790FC8B20FEF78DFC06
:101C90000020FEF78AFC9920FEF787FC0020FEF763
:101CA00084FCA820FEF781FC0020FEF77EFCB92012
:101CB000FEF77BFC0020FEF778FCC420FEF775FCE5
:101CC0000020FEF772FCCA20FEF76FFC0020FEF732
:101CD0006CFCD220FEF769FC0020FEF766FCD920E0
:101CE000FEF763FC0020FEF760FCE020FEF75DFCE1
:101CF0000020FEF75AFCF320FEF757FC0020FEF709
:101D000054FCE120FEF74EFC1620FEF74EFC0020AE
:101D1000FEF74BFC1C20FEF748FC0020FEF745FCBC
:101D20002220FEF742FC0020FEF73FFC3620FEF7A3
:101D30003CFC0020FEF739FC4520FEF736FC002075
:101D4000FEF733FC5220FEF730FC0020FEF72DFC9E
:101D50006420FEF72AFC0020FEF727FC7A20FEF71D
:101D600024FC0020FEF721FC8B20FEF71EFC002047
:101D7000FEF71BFC9920FEF718FC0020FEF715FC6F
:101D8000A820FEF712FC0020FEF70FFCB920FEF79A
:101D90000CFC0020FEF709FCC420FEF706FC002026
:101DA000FEF703FCCA20FEF700FC0020FEF7FDFB57
:101DB000D220FEF7FAFB0020FEF7F7FBD820FEF753
:101DC000F4FB0020FEF7F1FBE020FEF7EEFB002025
:101DD000FEF7EBFBF320FEF7E8FB0020FEF7E5FB48
:101DE000E220FEF7DFFB0520FEF7DFFB0020FEF719
:101DF000DCFB0B20FEF7D9FB0020FEF7D6FB1B20F7
:101E0000FEF7D3FB0020FEF7D0FB3420FEF7CDFB1E
:101E10000020FEF7CAFB4420FEF7C7FB0020FEF7B8
:101E2000C4FB4F20FEF7C1FB0020FEF7BEFB612084
:101E3000FEF7BBFB0020FEF7B8FB7920FEF7B5FBF1
:101E40000020FEF7B2FB8820FEF7AFFB0020FEF774
:101E5000ACFB9720FEF7A9FB0020FEF7A6FBA6200F
:101E6000FEF7A3FB0020FEF7A0FBB720FEF79DFBCB
:101E70000020FEF79AFBC220FEF797FB0020FEF73A
:101E800094FBC720FEF791FB0020FEF78EFBD120CC
:101E9000FEF78BFB0020FEF788FBD620FEF785FBC4
:101EA0000020FEF782FBDD20FEF77FFB0020FEF71F
:101EB0007CFBF320FEF779FB0020FEF776FBE320A6
:101EC000FEF770FB0520FEF770FB0020FEF76DFBB0
:101ED0000A20FEF76AFB0020FEF767FB1C20FEF7D6
:101EE00064FB002000E000E3FEF75FFB3320FEF719
:101EF0005CFB0020FEF759FB4420FEF756FB002058
:101F0000FEF753FB5020FEF750FB0020FEF74DFB81
:101F10006220FEF74AFB0020FEF747FB7820FEF721
:101F200044FB0020FEF741FB8820FEF73EFB00202B
:101F3000FEF73BFB9720FEF738FB0020FEF735FB52
:101F4000A620FEF732FB0020FEF72FFBB720FEF79E
:101F50002CFB0020FEF729FBC220FEF726FB002009
:101F6000FEF723FBC720FEF720FB0020FEF71DFB3A
:101F7000D120FEF71AFB0020FEF717FBD520FEF755
:101F800014FB0020FEF711FBDD20FEF70EFB002006
:101F9000FEF70BFBF320FEF708FB0020FEF705FB26
:101FA000E420FEF7FFFA0120FEF7FFFA0020FEF71B
:101FB000FCFA0120FEF7F9FA0020FEF7F6FA0220FB
:101FC000FEF7F3FA0020FEF7F0FA2A20FEF7EDFA0A
:101FD0000020FEF7EAFA3C20FEF7E7FA0020FEF7C1
:101FE000E4FA4B20FEF7E1FA0020FEF7DEFA5D206E
:101FF000FEF7DBFA0020FEF7D8FA7420FEF7D5FAD8
:102000000020FEF7D2FA8420FEF7CFFA0020FEF778
:10201000CCFA9320FEF7C9FA0020FEF7C6FAA220F8
:10202000FEF7C3FA0020FEF7C0FAB320FEF7BDFAB0
:102030000020FEF7BAFABE20FEF7B7FA0020FEF73E
:10204000B4FAC420FEF7B1FA0020FEF7AEFACD20B4
:10205000FEF7ABFA0020FEF7A8FAD320FEF7A5FAA8
:102060000020FEF7A2FADD20FEF79FFA0020FEF71F
:102070009CFAF320FEF799FA0020FEF796FAE52085
:10208000FEF790FA0020FEF790FA0020FEF78DFA96
:102090000020FEF78AFA0020FEF787FA0220FEF7FA
:1020A00084FA0020FEF781FA2920FEF77EFA00204C
:1020B000FEF77BFA3C20FEF778FA0020FEF775FA6F
:1020C0004B20FEF772FA0020FEF76FFA5D20FEF754
:1020D0006CFA0020FEF769FA7420FEF766FA002019
:1020E000FEF763FA8420FEF760FA0020FEF75DFA3F
:1020F0009320FEF75AFA0020FEF757FAA220FEF7C7
:1021000054FA0020FEF751FAB320FEF74EFA0020F1
:10211000FEF74BFABE20FEF748FA0020FEF745FA1C
:10212000C420FEF742FA0020FEF73FFACD20FEF76A
:102130003CFA0020FEF739FAD320FEF736FA0020E9
:10214000FEF733FADC20FEF730FA0020FEF72DFA16
:10215000F320FEF72AFA0020FEF727FAE620FEF722
:1021600021FA1120FEF721FA0020FEF71EFA342092
:10217000FEF71BFA0020FEF718FA5620FEF715FAB4
:102180000020FEF712FA7620FEF70FFA0020FEF785
:102190000CFA7720FEF709FA0020FEF706FA66200F
:1021A000FEF703FA0020FEF700FA8820FEF7FDF99B
:1021B0000020FEF7FAF99920FEF7F7F90020FEF764
:1021C000F4F9BB20FEF7F1F90020FEF7EEF99920B3
:1021D000FEF7EBF90020FEF7E8F96620FEF7E5F9D7
:1021E0000020FEF7E2F95520FEF7DFF90020FEF7A8
:1021F000DCF95520FEF7D9F90020FEF7D6F9452085
:10220000FEF7D3F90020FEF7D0F94320FEF7CDF911
:102210000020FEF7CAF94420FEF7C7F90020FEF7B8
:10222000C4F9E720FEF7BEF93220FEF7BEF9002020
:10223000FEF7BBF95520FEF7B8F90020FEF7B5F917
:102240007620FEF7B2F90020FEF7AFF96620FEF720
:10225000ACF90020FEF7A9F96720FEF7A6F90020E7
:10226000FEF7A3F96720FEF7A0F90020FEF79DF91D
:102270008720FEF79AF90020FEF797F99920FEF7DC
:1022800094F90020FEF791F9BB20FEF78EF90020AB
:10229000FEF78BF99920FEF788F90020FEF785F903
:1022A0007720FEF782F90020FEF77FF94420FEF741
:1022B0007CF90020FEF779F95620FEF776F9002028
:1022C000FEF773F92320FEF770F90020FEF76DF991
:1022D0003320FEF76AF90020FEF767F94520FEF784
:1022E00064F90020FEF761F9E820FEF75BF90020B1
:1022F000FEF75BF90020FEF758F99920FEF755F933
:102300000020FEF752F98720FEF74FF90020FEF774
:102310004CF98820FEF749F90020FEF746F97720AE
:10232000FEF743F90020FEF740F96620FEF73DF97D
:102330000020FEF73AF98820FEF737F90020FEF773
:1023400034F9AA20FEF731F90020FEF72EF9BB2060
:10235000FEF72BF90020FEF728F99920FEF725F962
:102360000020FEF722F96620FEF71FF90020FEF795
:102370001CF95520FEF719F90020FEF716F9552033
:10238000FEF713F90020FEF710F94420FEF70DF9CF
:102390000020FEF70AF94420FEF707F90020FEF7B7
:1023A00004F95520FEF701F90020FEF7FEF8E920B8
:1023B000FEF7F8F8AA20FEF7F8F80020FEF7F5F887
:1023C0000020FEF7F2F80020FEF7EFF80020FEF7FD
:1023D000E9F8AA20FEF7E9F8CF20FEF7E3F800209D
:1023E000FEF7E3F80020FEF7E0F80020FEF7DDF846
:1023F0000020FEF7DAF80020FEF7D7F80020FEF7FD
:10240000D4F80020FEF7D1F80020FEF7CEF8002027
:10241000FEF7CBF80020FEF7C8F80020FEF7C5F85D
:102420000020FEF7C2F80020FEF7BFF80020FEF7FC
:10243000BCF80020FEF7B9F80020FEF7B6F800203F
:10244000FEF7B3F8F020FEF7ADF80020FEF7ADF888
:102450005020FEF7AAF80020FEF7A7F80020FEF7AC
:10246000A4F80020FEF7A1F8F320FEF79BF8002067
:10247000FEF79BF8F920FEF795F80620FEF795F891
:102480001020FEF792F82920FEF78FF80020FEF7C3
:102490008CF83A20FEF786F85520FEF786F81120D2
:1024A000FEF780F8642002F09BFC2920FEF77AF802
:1024B0003520FEF777F80020FEF777F85120FEF779
:1024C00071F8FF20FEF771F85320FEF76BF82C200F
:1024D000FEF76BF85520FEF765F88220FEF765F8E9
:1024E0002C20FEF75FF802F090B8B0427ED14FF496
:1024F000704355211846FEF764F84FF20104AA21F3
:102500002046FEF75EF8651C52212846FEF759F872
:10251000A61C08213046FEF754F84FF204090121A9
:102520004846FEF74EF80D214FF43040FEF749F8CB
:102530000D214BF20100FEF744F80D214BF2020091
:10254000FEF73FF84FF4364A34215046FEF739F88B
:1025500034214BF20160FEF734F834214BF2026073
:10256000FEF72FF84FF4314B0D215846FEF729F8AE
:102570000D214BF20110FEF724F80D214BF2021051
:10258000FEF71FF834214FF43740FEF71AF83421D4
:102590004BF20170FEF715F834214BF20270FEF792
:1025A00010F800214FF43240FEF70BF800214BF2F7
:1025B0000120FEF706F800214BF20220FEF701F899
:1025C00024214FF43840FDF7FCFF24214BF6010095
:1025D000FDF7F7FF24214BF60200FDF7F2FF012182
:1025E0004FF43F40FDF7EDFF0F2100E0FEE34FF415
:1025F0003340FDF7E6FF0F214BF20130FDF7E1FF1D
:102600000F214BF20230FDF7DCFF34214FF439404B
:10261000FDF7D7FF34214BF60110FDF7D2FF34212F
:102620004BF60210FDF7CDFF08214FF43540FDF7C2
:10263000C8FF08214BF20150FDF7C3FF08214BF200
:102640000250FDF7BEFF03214FF44240FDF7B9FFF2
:1026500024214FF43A40FDF7B4FF24214BF601202A
:10266000FDF7AFFF24214BF60220FDF7AAFF002162
:102670004FF43C40FDF7A5FF78214BF60140FDF7F4
:10268000A0FF00214BF60240FDF79BFF00214FF415
:102690003D40FDF796FF78214BF60150FDF791FF85
:1026A00000214BF60250FDF78CFF00214FF43E4015
:1026B000FDF787FF64214BF60160FDF782FF0021E3
:1026C0004FF45140FDF77DFF33214DF20110FDF72E
:1026D00078FF00214DF20210FDF773FF34214DF217
:1026E0000310FDF76EFF00214DF20410FDF769FFA6
:1026F0003A214DF20510FDF764FF00214DF206105E
:10270000FDF75FFF4A214DF20710FDF75AFF002148
:102710004DF20810FDF755FF5C214DF20910FDF751
:1027200050FF00214DF20A10FDF74BFF81214DF2C1
:102730000B10FDF746FF00214DF20C10FDF741FF95
:10274000A6214DF20D10FDF73CFF00214DF20E10B9
:10275000FDF737FFE5214DF20F10FDF732FF0121A4
:102760004DF21010FDF72DFF13214DF21110FDF762
:1027700028FF01214DF21210FDF723FF54214DF2E5
:102780001310FDF71EFF01214DF21410FDF719FF84
:1027900082214DF21510FDF714FF01214DF21610A4
:1027A000FDF70FFFCA214DF21710FDF70AFF0221B6
:1027B0004DF21810FDF705FF00214DF21910FDF73D
:1027C00000FF02214DF21A10FDF7FBFE01214DF230
:1027D0001B10FDF7F6FE02214DF21C10FDF7F1FE75
:1027E00034214DF21D10FDF7ECFE02214DF21E10BA
:1027F000FDF7E7FE67214DF21F10FDF7E2FE022113
:102800004DF22010FDF7DDFE84214DF22110FDF781
:10281000D8FE02214DF22210FDF7D3FEA4214DF285
:102820002310FDF7CEFE02214DF22410FDF7C9FE64
:10283000B7214DF22510FDF7C4FE02214DF22610FE
:10284000FDF7BFFECF214DF22710FDF7BAFE0221A2
:102850004DF22810FDF7B5FEDE214DF22910FDF7EF
:10286000B0FE02214DF22A10FDF7ABFEF2214DF22F
:102870002B10FDF7A6FE02214DF22C10FDF7A1FE54
:10288000FE214DF22D10FDF79CFE03214DF22E107E
:10289000FDF797FE10214DF22F10FDF792FE032158
:1028A0004DF23010FDF78DFE33214DF23110FDF762
:1028B00088FE03214DF23210FDF783FE6D214DF2AB
:1028C0003310FDF77EFE00214FF45240FDF779FEF4
:1028D00033214DF20120FDF774FE00214DF202205C
:1028E000FDF76FFE34214DF20320FDF76AFE002153
:1028F0004DF20420FDF765FE3A214DF20520FDF76B
:1029000060FE00214DF20620FDF75BFE4A214DF2EC
:102910000720FDF756FE00214DF20820FDF751FE7D
:102920005C214DF20920FDF74CFE00214DF20A20FA
:10293000FDF747FE81214DF20B20FDF742FE0021FD
:102940004DF20C20FDF73DFEA6214DF20D20FDF7C6
:1029500038FE00214DF20E20FDF733FEE5214DF249
:102960000F20FDF72EFE01214DF21020FDF729FE6C
:1029700013214DF21120FDF724FE01214DF212200A
:10298000FDF71FFE54214DF21320FDF71AFE012121
:102990004DF21420FDF715FE82214DF21520FDF7B2
:1029A00010FE01214DF21620FDF70BFECA214DF25B
:1029B0001720FDF706FE02214DF21820FDF701FE5B
:1029C00000214DF21920FDF7FCFD02214DF21A20E5
:1029D000FDF7F7FD01214DF21B20FDF7F2FD02216D
:1029E0004DF21C20FDF7EDFD34214DF21D20FDF7C9
:1029F000E8FD02214DF21E20FDF7E3FD67214DF2B7
:102A00001F20FDF7DEFD02214DF22020FDF7D9FD4C
:102A100084214DF22120FDF7D4FD02214DF2222028
:102A2000FDF7CFFDA4214DF22320FDF7CAFD0221C1
:102A30004DF22420FDF7C5FDB7214DF22520FDF70D
:102A4000C0FD02214DF22620FDF7BBFDCF214DF246
:102A50002720FDF7B6FD02214DF22820FDF7B1FD3C
:102A6000DE214DF22920FDF7ACFD02214DF22A2096
:102A7000FDF7A7FDF2214DF22B20FDF7A2FD02216B
:102A80004DF22C20FDF79DFDFE214DF22D20FDF78E
:102A900098FD03214DF22E20FDF793FD10214DF2FC
:102AA0002F20FDF78EFD03214DF23020FDF789FD2B
:102AB00033214DF23120FDF784FD03214DF2322008
:102AC000FDF77FFD6D214DF23320FDF77AFD0021EA
:102AD0004FF45340FDF775FD33214DF20130FDF702
:102AE00070FD00214DF20230FDF76BFD34214DF2F7
:102AF0000330FDF766FD00214DF20430FDF761FD66
:102B00003A214DF20530FDF75CFD00214DF2063013
:102B1000FDF757FD4A214DF20730FDF752FD002128
:102B20004DF20830FDF74DFD5C214DF20930FDF707
:102B300048FD00214DF20A30FDF743FD81214DF2A1
:102B40000B30FDF73EFD00214DF20C30FDF739FD55
:102B5000A6214DF20D30FDF734FD00214DF20E306F
:102B6000FDF72FFDE5214DF20F30FDF72AFD012184
:102B70004DF21030FDF725FD13214DF21130FDF718
:102B800020FD01214DF21230FDF71BFD54214DF2C5
:102B90001330FDF716FD01214DF21430FDF711FD44
:102BA00082214DF21530FDF70CFD01214DF216305A
:102BB000FDF707FDCA214DF21730FDF702FD022196
:102BC0004DF21830FDF7FDFC00214DF21930FDF7F4
:102BD000F8FC02214DF21A30FDF7F3FC01214DF211
:102BE0001B30FDF7EEFC02214DF21C30FDF7E9FC35
:102BF00034214DF21D30FDF7E4FC02214DF21E3070
:102C0000FDF7DFFC67214DF21F30FDF7DAFC0221F2
:102C10004DF22030FDF7D5FC84214DF22130FDF737
:102C2000D0FC02214DF22230FDF7CBFCA4214DF265
:102C30002330FDF7C6FC02214DF22430FDF7C1FC24
:102C4000B7214DF22530FDF7BCFC02214DF22630B4
:102C5000FDF7B7FCCF214DF22730FDF7B2FC022182
:102C60004DF22830FDF7ADFCDE214DF22930FDF7A5
:102C7000A8FC02214DF22A30FDF7A3FCF2214DF20F
:102C80002B30FDF79EFC02214DF22C30FDF799FC14
:102C9000FE214DF22D30FDF794FC03214DF22E3034
:102CA000FDF78FFC10214DF22F30FDF78AFC032138
:102CB0004DF23030FDF785FC33214DF23130FDF718
:102CC00080FC03214DF23230FDF77BFC6D214DF28B
:102CD0003330FDF776FC00214FF45440FDF771FCD2
:102CE00033214DF20140FDF76CFC00214DF2024012
:102CF000FDF767FC34214DF20340FDF762FC002133
:102D00004DF20440FDF75DFC3A214DF20540FDF720
:102D100058FC00214DF20640FDF753FC4A214DF2CC
:102D20000740FDF74EFC00214DF20840FDF749FC3D
:102D30005C214DF20940FDF744FC00214DF20A40B0
:102D4000FDF73FFC81214DF20B40FDF73AFC0021DD
:102D50004DF20C40FDF735FCA6214DF20D40FDF77C
:102D600030FC00214DF20E40FDF72BFCE5214DF229
:102D70000F40FDF726FC01214DF21040FDF721FC2C
:102D800013214DF21140FDF71CFC01214DF21240C0
:102D9000FDF717FC54214DF21340FDF712FC012101
:102DA0004DF21440FDF70DFC82214DF21540FDF768
:102DB00008FC01214DF21640FDF703FCCA214DF23B
:102DC0001740FDF7FEFB02214DF21840FDF7F9FB1D
:102DD00000214DF21940FDF7F4FB02214DF21A409B
:102DE000FDF7EFFB01214DF21B4000E0FFE2FDF794
:102DF000E8FB02214DF21C40FDF7E3FB34214DF2CC
:102E00001D40FDF7DEFB02214DF21E40FDF7D9FB10
:102E100067214DF21F40FDF7D4FB02214DF2204007
:102E2000FDF7CFFB84214DF22140FDF7CAFB0221C3
:102E30004DF22240FDF7C5FBA4214DF22340FDF7E2
:102E4000C0FB02214DF22440FDF7BBFBB7214DF240
:102E50002540FDF7B6FB02214DF22640FDF7B1FB00
:102E6000CF214DF22740FDF7ACFB02214DF2284067
:102E7000FDF7A7FBDE214DF22940FDF7A2FB022161
:102E80004DF22A40FDF79DFBF2214DF22B40FDF75C
:102E900098FB02214DF22C40FDF793FBFE214DF2F1
:102EA0002D40FDF78EFB03214DF22E40FDF789FBEF
:102EB00010214DF22F40FDF784FB03214DF23040ED
:102EC000FDF77FFB33214DF23140FDF77AFB032103
:102ED0004DF23240FDF775FB6D214DF23340FDF7A9
:102EE00070FB00214FF45540FDF76BFB33214DF291
:102EF0000150FDF766FB00214DF20250FDF761FB2A
:102F000034214DF20350FDF75CFB00214DF20450DB
:102F1000FDF757FB3A214DF20550FDF752FB00211A
:102F20004DF20650FDF74DFB4A214DF20750FDF7DB
:102F300048FB00214DF20850FDF743FB5C214DF2A8
:102F40000950FDF73EFB00214DF20A50FDF739FB19
:102F500081214DF20B50FDF734FB00214DF20C5056
:102F6000FDF72FFBA6214DF20D50FDF72AFB0021A6
:102F70004DF20E50FDF725FBE5214DF20F50FDF708
:102F800020FB01214DF21050FDF71BFB13214DF2E8
:102F90001150FDF716FB01214DF21250FDF711FB08
:102FA00054214DF21350FDF70CFB01214DF214504A
:102FB000FDF707FB82214DF21550FDF702FB0121C1
:102FC0004DF21650FDF7FDFACA214DF21750FDF7EC
:102FD000F8FA02214DF21850FDF7F3FA00214DF2F4
:102FE0001950FDF7EEFA02214DF21A50FDF7E9FAF9
:102FF00001214DF21B50FDF7E4FA02214DF21C5065
:10300000FDF7DFFA34214DF21D50FDF7DAFA022107
:103010004DF21E50FDF7D5FA67214DF21F50FDF716
:10302000D0FA02214DF22050FDF7CBFA84214DF267
:103030002150FDF7C6FA02214DF22250FDF7C1FAE8
:10304000A4214DF22350FDF7BCFA02214DF2245089
:10305000FDF7B7FAB7214DF22550FDF7B2FA02217C
:103060004DF22650FDF7ADFACF214DF22750FDF776
:10307000A8FA02214DF22850FDF7A3FADE214DF205
:103080002950FDF79EFA02214DF22A50FDF799FAD8
:10309000F2214DF22B50FDF794FA02214DF22C5003
:1030A000FDF78FFAFE214DF22D50FDF78AFA03212C
:1030B0004DF22E50FDF785FA10214DF22F50FDF7FD
:1030C00080FA03214DF23050FDF77BFA33214DF2A7
:1030D0003150FDF776FA03214DF23250FDF771FAC7
:1030E0006D214DF23350FDF76CFA00214FF456403C
:1030F000FDF767FA33214DF20160FDF762FA002116
:103100004DF20260FDF75DFA34214DF20360FDF7E8
:1031100058FA00214DF20460FDF753FA3A214DF2BE
:103120000560FDF74EFA00214DF20660FDF749FA01
:103130004A214DF20760FDF744FA00214DF2086084
:10314000FDF73FFA5C214DF20960FDF73AFA0021E4
:103150004DF20A60FDF735FA81214DF20B60FDF763
:1031600030FA00214DF20C60FDF72BFAA6214DF24A
:103170000D60FDF726FA00214DF20E60FDF721FAF1
:10318000E5214DF20F60FDF71CFA01214DF21060B0
:10319000FDF717FA13214DF21160FDF712FA012124
:1031A0004DF21260FDF70DFA54214DF21360FDF758
:1031B00008FA01214DF21460FDF703FA82214DF265
:1031C0001560FDF7FEF901214DF21660FDF7F9F9E2
:1031D000CA214DF21760FDF7F4F902214DF2186093
:1031E000FDF7EFF900214DF21960FDF7EAF9022130
:1031F0004DF21A60FDF7E5F901214DF21B60FDF774
:10320000E0F902214DF21C60FDF7DBF934214DF2AB
:103210001D60FDF7D6F902214DF21E60FDF7D1F9D0
:1032200067214DF21F60FDF7CCF902214DF22060BD
:10323000FDF7C7F984214DF22160FDF7C2F90221A3
:103240004DF22260FDF7BDF9A4214DF22360FDF798
:10325000B8F902214DF22460FDF7B3F9B7214DF220
:103260002560FDF7AEF902214DF22660FDF7A9F9C0
:10327000CF214DF22760FDF7A4F902214DF228601D
:10328000FDF79FF9DE214DF22960FDF79AF9022141
:103290004DF22A60FDF795F9F2214DF22B60FDF712
:1032A00090F902214DF22C60FDF78BF9FE214DF2D1
:1032B0002D60FDF786F903214DF22E60FDF781F9AF
:1032C00010214DF22F60FDF77CF903214DF23060A3
:1032D000FDF777F933214DF23160FDF772F90321E3
:1032E0004DF23260FDF76DF96D214DF23360FDF75F
:1032F00068F955211846FDF764F9AA212046FDF723
:1033000060F952212846FDF75CF908213046FDF7A7
:1033100058F900214846FDF754F9CC215846FDF7ED
:1033200050F900214BF20110FDF74BF905215046F1
:10333000FDF747F970214FF43740FDF742F970214E
:103340004BF20170FDF73DF901214FF43840FDF7D4
:1033500038F903214BF60100FDF733F903214BF651
:103360000200FDF72EF903214BF60300FDF729F9C2
:1033700002214FF43C40FDF724F900214BF60140B7
:10338000FDF71FF900214BF60240FDF71AF9D02195
:103390004FF44940FDF715F902214CF60110FDF7F5
:1033A00010F950214CF60210FDF70BF950214CF6A4
:1033B0000310FDF706F950214CF60410FDF701F952
:1033C00000214FF45450FDF7FCF855214FF468509C
:1033D000FDF7F7F84FF48850FDF7E4F8782001F096
:1033E000E8FC4FF42450FDF7DDF801F00EB9A0F52C
:1033F00013414FF4E06640F2022940F23F1A4FF4C5
:10340000274B25392BD0F41DA0F5134128397DD049
:10341000A0F513414FF41C5B203978D0A0F513417F
:10342000313975D0A0F5A841083972D0A0F5A8515E
:1034300005396FD0A0F5354105396CD0A0F545416F
:10344000053969D0A0F58A41313966D0A0F58A41A5
:1034500035397DD0A0F5C85163397AD0C5E747F634
:10346000F001E520FDF7ADF829460120FDF7A9F8A8
:1034700031460220FDF7A5F841F230010320FDF7A7
:10348000A0F800210420FDF79CF849460820FDF72C
:1034900098F800210920FDF794F800210A20FDF793
:1034A00090F800210C20FDF78CF800210D20FDF78D
:1034B00088F800210F20FDF784F800211020FDF787
:1034C00080F807211120FDF77CF800211220FDF77C
:1034D00078F800211320FDF774F800210720FDF78C
:1034E00070F841F290611020FDF76BF840F227214F
:1034F0001120FDF766F89D211220FDF762F84FF4C8
:10350000C8511320FDF75DF8252107E084E070E144
:1035100016E2F0E28DE3FDE3FDE3FDE32920FDF794
:1035200050F80D212B20FDF74CF807213020FDF736
:1035300048F840F203313120FDF743F803213220EF
:10354000FDF73FF840F206213520FDF73AF801E09B
:10355000FEE3FEE308213620FDF733F840F2064192
:103560003720FDF72EF84FF441713820FDF729F888
:1035700007213920FDF725F840F202613C20FDF7D4
:1035800020F808213D20FDF71CF800215020FDF710
:1035900018F8EF215120FDF714F800215220FDF713
:1035A00010F851465320FDF70CF859466020FDF7FE
:1035B00008F801216120FDF704F800216A20FDF7D9
:1035C00000F800218020FCF7FCFF00218120FCF79F
:1035D000F8FF00218220FCF7F4FF00218320FCF794
:1035E000F0FF00218420FCF7ECFF00218520FCF790
:1035F000E8FF10219020FCF7E4FF4FF4C061922017
:10360000FCF7DFFF40F233110720FCF7DAFF22213D
:103610000020FCF7D6FFE8E641F28F01EC20FCF732
:10362000D0FF41F23421EF20FCF7CBFF29460120E7
:10363000FCF7C7FF31460220FCF7C3FF41F230011F
:103640000320FCF7BEFF00210420FCF7BAFF494627
:103650000820FCF7B6FF00210920FCF7B2FF00218B
:103660000A20FCF7AEFF01210C20FCF7AAFF002185
:103670000D20FCF7A6FF00210F20FCF7A2FF002180
:103680001020FCF79EFF07211120FCF79AFF002174
:103690001220FCF796FF00211320FCF792FF012176
:1036A0000720FCF78EFF322001F09AFB41F2904197
:1036B0001020FCF786FF40F227211120FCF781FF44
:1036C000322001F08DFB8A211220FCF77AFF322094
:1036D00001F086FB4FF4D0511320FCF772FF062156
:1036E0002920FCF76EFF0D212B20FCF76AFF32200A
:1036F00001F076FB00212020FCF763FF0021212050
:10370000FCF75FFF322001F06BFB00213020FCF75B
:1037100058FF40F204613120FCF753FF40F20531BD
:103720003220FCF74EFF00213520FCF74AFF40F61F
:1037300009413620FCF745FF4FF401713720FCF7B3
:1037400040FF40F201313820FCF73BFF2146392091
:10375000FCF737FF00213C20FCF733FF40F60A213D
:103760003D20FCF72EFF322001F03AFB00215020D3
:10377000FCF727FFEF215120FCF723FF0021522007
:10378000FCF71FFF51465320FCF71BFF59466020F2
:10379000FCF717FF01216120FCF713FF00216A20CD
:1037A000FCF70FFF00218020FCF70BFF0021812098
:1037B000FCF707FF00218220FCF703FF0021832094
:1037C000FCF7FFFE00218420FCF7FBFE0021852092
:1037D000FCF7F7FE10219020FCF7F3FE4FF4C061D8
:1037E0009220FCF7EEFE40F233110720FCF7E9FED1
:1037F000FBE500210846FCF7E4FE29460120FCF722
:10380000E0FE31460220FCF7DCFE41F230010320ED
:10381000FCF7D7FE00210420FCF7D3FE4946082020
:10382000FCF7CFFE00210920FCF7CBFE00210A2087
:10383000FCF7C7FE01210C20FCF7C3FE00210D2080
:10384000FCF7BFFE00210F20FCF7BBFE322001F089
:10385000C7FA40F201110720FCF7B3FE322001F055
:10386000BFFA4FF486511020FCF7ABFE0721112060
:10387000FCF7A7FE4FF4887319461220FCF7A1FE4F
:103880004FF430611320FCF79CFE00212920FCF747
:1038900098FE44F210012B20FCF793FE00215020EB
:1038A000FCF78FFEEF215120FCF78BFE0021522008
:1038B000FCF787FE51465320FCF783FE59466020F3
:1038C000FCF77FFE01216120FCF77BFE00216A20CE
:1038D000FCF777FE00218020FCF773FE0021812099
:1038E000FCF76FFE00218220FCF76BFE0021832095
:1038F000FCF767FE00218420FCF763FE0021852091
:10390000FCF75FFE10219020FCF75BFE0021922067
:10391000FCF757FE01219320FCF753FE1946952032
:10392000FCF74FFE00219720FCF74BFE002198206A
:10393000FCF747FE40F273110720FCF742FE54E506
:1039400041F21401E720FCF73CFE29460120FCF778
:1039500038FE4FF400710220FCF733FE41F23801CB
:103960000320FCF72EFE49460820FCF72AFE002122
:103970000920FCF726FE00210A20FCF722FE002188
:103980000C20FCF71EFE00210D20FCF71AFE002182
:103990000F20FCF716FE00211020FCF712FE072175
:1039A0001120FCF70EFE00211220FCF70AFE002178
:1039B0001320FCF706FEC82001F012FA41F29061D4
:1039C0001020FCF7FEFD40F227211120FCF7F9FD45
:1039D000322001F005FA0C211220FCF7F2FD322012
:1039E00001F0FEF94FF400611320FCF7EAFD11210C
:1039F0002920FCF7E6FD0B212B20FCF7E2FD32200D
:103A000001F0EEF900212020FCF7DBFD51462120DA
:103A1000FCF7D7FD00213020FCF7D3FD4FF4837372
:103A200019463120FCF7CDFD00213220FCF7C9FDFD
:103A30004FF401713520FCF7C4FD41F20A613620D4
:103A4000FCF7BFFD21463720FCF7BBFD19463820A7
:103A5000FCF7B7FD21463920FCF7B3FD40F20241E7
:103A60003C20FCF7AEFD40F60F413D20FCF7A9FDE0
:103A700000215020FCF7A5FDEF215120FCF7A1FD0E
:103A800000215220FCF79DFD51465320FCF799FD83
:103A900059466020FCF795FD01216120FCF791FD5E
:103AA00000216A20FCF78DFD00218020FCF789FDB4
:103AB00000218120FCF785FD00218220FCF781FD9B
:103AC00000218320FCF77DFD00218420FCF779FD97
:103AD00000218520FCF775FD10219020FCF771FD79
:103AE0004FF4C0619220FCF76CFD40F233110720C7
:103AF000FCF767FD79E429460120FCF762FD3146B9
:103B00000220FCF75EFD41F230010320FCF759FD75
:103B100000210420FCF755FD40F207210820FCF7A6
:103B200050FD00210920FCF74CFD00210A20FCF784
:103B300048FD00210C20FCF744FD00210D20FCF77E
:103B400040FD00210F20FCF73CFD142001F048F956
:103B500041F2B0611020FCF734FD01211120FCF787
:103B600030FD01211720FCF72CFD4FF49C71122031
:103B7000FCF727FD4FF400611320FCF722FD09211B
:103B80002920FCF71EFD09212A20FCF71AFD00213F
:103B9000A420FCF716FD00215020FCF712FDEF21B8
:103BA0005120FCF70EFD00215220FCF70AFD514682
:103BB0005320FCF706FD59466020FCF702FD012169
:103BC0006120FCF7FEFC00216A20FCF7FAFC0021D2
:103BD0008020FCF7F6FC00218120FCF7F2FC00219C
:103BE0008220FCF7EEFC00218320FCF7EAFC002198
:103BF0008420FCF7E6FC00218520FCF7E2FC132181
:103C00009020FCF7DEFC00219220FCF7DAFC032177
:103C10009320FCF7D6FC4FF488719520FCF7D1FC7B
:103C200040F273110720FCF7CCFC322001F0D8F8E9
:103C300014E400210720FCF7C4FC322001F0D0F886
:103C40004FF48E711220FCF7BCFC0121A420FCF77C
:103C5000B8FC0F210820FCF7B4FC08210A20FCF76F
:103C6000B0FC08210D20FCF7ACFC21463020FCF70D
:103C7000A8FC07213120FCF7A4FC40F203613220AC
:103C8000FCF79FFC31463320FCF79BFC494634206F
:103C9000FCF797FC02213520FCF793FC41F60F71ED
:103CA0003620FCF78EFC21463720FCF78AFC0021E9
:103CB0003820FCF786FC00213920FCF782FC2146E5
:103CC0003A20FCF77EFC00213B20FCF77AFC072120
:103CD0003C20FCF776FC00213D20FCF772FC3220F2
:103CE00001F07EF801210720FCF76BFC0121172071
:103CF000FCF767FC322001F073F84FF4BD5110203F
:103D0000FCF75FFC40F217211120FCF75AFC4FF43E
:103D10008F7102E09EE098E162E21220FCF751FC14
:103D20004FF470611320FCF74CFC00212A20FCF7B3
:103D300048FC0A212920FCF744FC4FF49F71122013
:103D4000FCF73FFC00215020FCF73BFCEF2101E099
:103D5000FBE2A5E35120FCF734FC00215220FCF7E4
:103D600030FC51465320FCF72CFC59466020FCF7F0
:103D700028FC01216120FCF724FC00216A20FCF7CB
:103D800020FC00218020FCF71CFC00218120FCF796
:103D900018FC00218220FCF714FC00218320FCF792
:103DA00010FC00218420FCF70CFC00218520FCF78E
:103DB00008FC13219020FCF704FC4FF44071922082
:103DC000FCF7FFFB05219320FCF7FBFB002195206E
:103DD000FCF7F7FB00219720FCF7F3FB002198206C
:103DE000FCF7EFFB29460120FCF7EBFB31460220F4
:103DF000FCF7E7FB41F238010320FCF7E2FB00216E
:103E00000420FCF7DEFB00210C20FCF7DAFB00218C
:103E10000F20FCF7D6FB00212020FCF7D2FB00216D
:103E20002120FCF7CEFB21210720FCF7CAFB142040
:103E300000F0D6FF61210720FCF7C3FB142000F03F
:103E4000CFFF40F273110720FCF7BBFB142000F0FA
:103E5000C7FFDAE300210846FCF7B3FB0021084660
:103E6000FCF7AFFB00210846FCF7ABFB002108463E
:103E7000FCF7A7FB0121A420FCF7A3FB142000F012
:103E8000AFFF59466020FCF79CFB49460820FCF731
:103E900098FB4FF405713020FCF793FB43F215714A
:103EA0003120FCF78EFB40F204613220FCF789FBE5
:103EB00040F616613320FCF784FB42F211213420D6
:103EC000FCF77FFB4FF4A8513520FCF77AFB48F252
:103ED00007513620FCF775FB41F207413720FCF70C
:103EE00070FB41F203413820FCF76BFB20213920A5
:103EF000FCF767FB1A219020FCF763FB00211020E0
:103F0000FCF75FFB07211120FCF75BFB002112206F
:103F1000FCF757FB00211320FCF753FB142000F0A3
:103F20005FFF4FF4E6611020FCF74BFB40F23711C6
:103F30001120FCF746FB142000F052FF4FF4DC7117
:103F40001220FCF73EFB142000F04AFF4FF4706192
:103F50001320FCF736FB80212A20FCF732FB482196
:103F60002920FCF72EFB142000F03AFF29460120FF
:103F7000FCF727FB31460220FCF723FB41F2380116
:103F80000320FCF71EFB49460820FCF71AFB002122
:103F90000A20FCF716FB00210C20FCF712FB002185
:103FA0000D20FCF70EFB30210E20FCF70AFB002150
:103FB0005020FCF706FBEF215120FCF702FB00210B
:103FC0005220FCF7FEFA51465320FCF7FAFA594604
:103FD0006020FCF7F6FA01216120FCF7F2FA0021DB
:103FE0006A20FCF7EEFA11219020FCF7EAFA4FF470
:103FF000C0619220FCF7E5FA40F202419320FCF701
:10400000E0FA02219420FCF7DCFA142000F0E8FE2C
:1040100001210720FCF7D5FA142000F0E1FE612110
:104020000720FCF7CEFA40F273110720FCF7C9FA1B
:1040300000212020FCF7C5FA00212120FCF7C1FA5D
:1040400022210020FCF7BDFADFE200210846FCF740
:10405000B8FA00210846FCF7B4FA142000F0C0FEBC
:1040600000210846FCF7ADFA00210846FCF7A9FA42
:1040700000210846FCF7A5FA00210846FCF7A1FA42
:104080000121A420FCF79DFA142000F0A9FE594656
:104090006020FCF796FA40F606010820FCF791FA3A
:1040A00040F2037319463020FCF78BFA01213120CE
:1040B000FCF787FA04213220FCF783FA4FF4817170
:1040C0003320FCF77EFA4FF4407421463420FCF78D
:1040D00078FA40F203113520FCF773FA1F213620DD
:1040E000FCF76FFA19463720FCF76BFA01213820EC
:1040F000FCF767FA04213920FCF763FA15219020B8
:10410000FCF75FFA4FF482611020FCF75AFA40F294
:1041100047211120FCF755FA4FF4DE711220FCF70D
:1041200050FA4FF460611320FCF74BFA782000F04E
:1041300057FE29460120FCF744FA4FF40071022093
:10414000FCF73FFA41F230010320FCF73AFA08216C
:104150000A20FCF736FA00210C20FCF732FA202165
:104160000E20FCF72EFA00210F20FCF72AFA00217E
:104170002020FCF726FA00212120FCF722FA3D211D
:104180002A20FCF71EFA142000F02AFE2D212920F7
:10419000FCF717FA00215020FCF713FA4DF2EF015B
:1041A0005120FCF70EFA00215220FCF70AFA514682
:1041B0005320FCF706FA00216120FCF702FA0021E7
:1041C0006A20FCF7FEF921469220FCF7FAF9052156
:1041D0009320FCF7F6F929460720FCF7F2F914E2E0
:1041E00001210020FCF7EDF90A2000F0F9FD41F271
:1041F00028611020FCF7E5F90E211220FCF7E1F907
:1042000040F639211320FCF7DCF90A2000F0E8FD24
:1042100040211120FCF7D5F950211520FCF7D1F9E8
:104220000A2000F0DDFD1E211220FCF7CAF90A2049
:1042300000F0D6FD4FF4B1511020FCF7C2F942F660
:1042400039211320FCF7BDF90A2000F0C9FD2946E9
:104250000120FCF7B6F94FF440710220FCF7B1F9E8
:1042600041F238010320FCF7ACF949460820FCF77D
:10427000A8F908210A20FCF7A4F900213020FCF756
:10428000A0F940F202413120FCF79BF94FF4837111
:104290003220FCF796F940F203513320FCF791F9F4
:1042A0004FF482713420FCF78CF940F20131352053
:1042B000FCF787F921463620FCF783F940F20531F7
:1042C0003720FCF77EF94FF402713820FCF779F9BA
:1042D00040F60B713920FCF774F902214120FCF7FC
:1042E00070F959466020FCF76CF901216120FCF758
:1042F00068F94FF404719020FCF763F94FF485716D
:104300009220FCF75EF904219320FCF75AF9294624
:10431000A020FCF756F901210720FCF752F92121D2
:104320000720FCF74EF923210720FCF74AF9332137
:104330000720FCF746F940F233110720FCF741F95A
:104340000021A020FCF73DF95FE130211520FCF7AA
:1043500038F910219A20FCF734F920211120FCF7BC
:1043600030F943F228411020FCF72BF902211220EA
:10437000FCF727F941F238011320FCF722F9282035
:1043800000F02EFD12210846FCF71BF9282000F052
:1043900027FD43F220411020FCF713F943F23801C6
:1043A0001320FCF70EF9462000F01AFD0021302002
:1043B000FCF707F940F202413120FCF702F940F224
:1043C00007313220FCF7FDF84FF441713320FCF740
:1043D000F8F804213420FCF7F4F840F201413520CC
:1043E000FCF7EFF821463620FCF7EBF840F20531F8
:1043F0003720FCF7E6F84FF4C26319463820FCF783
:10440000E0F819463920FCF7DCF829460120FCF7D2
:10441000D8F84FF440710220FCF7D3F841F2300194
:104420000320FCF7CEF840F608010820FCF7C9F895
:1044300008210A20FCF7C5F859466020FCF7C1F8AE
:1044400001216120FCF7BDF84FF49F719020FCF72B
:10445000B8F829469220FCF7B4F829469320FCF7D7
:10446000B0F84FF44051A020FCF7ABF81021A32086
:10447000FCF7A7F801210720FCF7A3F8212107206A
:10448000FCF79FF823210720FCF79BF83321072036
:10449000FCF797F840F233110720FCF792F8B4E0EC
:1044A000E220FCF77FF82320FCF77FF80220FCF7DE
:1044B0007CF80420FCF779F8642000F07AFCE02016
:1044C000FCF770F80120FCF770F80A2000F088FC77
:1044D000E020FCF767F80320FCF767F80C2000F0F9
:1044E0007FFC0120FCF75EF80A2000F079FCE62052
:1044F000FCF758F80320FCF758F8FF20FCF755F8B4
:10450000FF20FCF752F8B020FCF74CF82020FCF715
:104510004CF80020FCF749F80320FCF746F840F27D
:104520001F30FCF742F80120FCF73FF840F2DF10A3
:10453000FCF73BF80020FCF738F8B420FCF732F821
:104540000420FCF732F840F21F40FCF72EF8002060
:10455000FCF72BF8D220FCF728F80020FCF725F810
:104560000020FCF722F80020FCF71FF80020FCF7E1
:104570001CF8B620FCF716F80220FCF716F84FF4EA
:104580000370FCF712F80020FCF70FF82220FCF76C
:104590000CF80920FCF709F80020FCF706F80020C9
:1045A000FCF703F8F020FBF7FDFF0320FBF7FDFF0E
:1045B0002920FBF7F7FFD020FBF7F4FF0020FBF7E3
:1045C000F4FFBE20FBF7EEFF0520FBF7EEFFFE2019
:1045D000FBF7EBFF0120FBF7E8FFFF20FBF7E5FF10
:1045E0000020FBF7E2FFB820FBF7DCFF0F20FBF712
:1045F000DCFF0120FBF7D9FFBA20FBF7D3FF012036
:10460000FBF7D3FF6420FCF726FB0020FCF745FBFB
:10461000FA48C0F880813846FCF7D7FC1FB0BDE8E7
:10462000F08F2DE9F8438146089E9846F44DA888FE
:10463000A0F5D043043B02D1A879012806D0A2EB13
:104640000900401C87B20C46EE4D2BE00C46288832
:10465000811A491E89B24246A0EB0900401E83B26E
:104660000020A8712A276F814FF02B08A5F80C8035
:1046700020460096FFF7D5FF0120A871A5F80A8013
:10468000AF81BDE8F88321464846FBF7BEFFFBF744
:10469000A6FF002002E02E80401C80B2B842FAD370
:1046A000641CA4B24445EED9EBE72DE9F0478246FD
:1046B000DDF820800E46A2EB0A00401C85B2981B54
:1046C000401C87B20024DFF83C9314E0301981B21B
:1046D0005046FBF79AFFFBF782FF002207E004FB3E
:1046E000052038F81000A9F80000521C92B2AA4226
:1046F000F5D3641CA4B2BC42E8D3BDE8F0872DE931
:10470000FE4F00250026171AA3EB010881468A46B2
:10471000681E002F03DD4FF00101019107E003D176
:104720004FF00001019102E00190C7F10007B8F1DC
:10473000000F03DD4FF00100009007E003D14FF0C0
:104740000000009002E00090C8F10008474501DD3C
:104750003C4600E044464FF0000B601C029015E020
:104760001FFA8AF11FFA89F0FCF7CDF93D4446445F
:10477000A54202DD2D1B01988144A64202DD361BB5
:10478000009882440BF1010B1FFA8BFB02988345C2
:10479000E6DDBDE8FE8FF0B505460E4614461F4621
:1047A0003346224631462846FFF7A9FF3B462A46B4
:1047B00031462846FFF7A3FF3B46224639462846A6
:1047C000FFF79DFF3B46224631462046BDE8F040BC
:1047D00095E72DE9FC4F074688460024154603203F
:1047E000A0EB42064BE0A8EB050081B207EB040A00
:1047F00001901FFA8AF0FCF786F9A8EB040081B259
:1048000007EB050900901FFA89F0FCF77CF908EB2B
:10481000040B1FFA8BF11FFA89F0FCF774F908EB0F
:1048200005091FFA89F11FFA8AF0FCF76CF91FFAE3
:1048300089F1A7EB04091FFA89F0FCF764F9A7EBEB
:10484000050A1FFA8BF11FFA8AF0FCF75CF9019850
:1048500081B21FFA89F0FCF756F9009881B21FFA6D
:104860008AF0FCF750F9641C002E03DA06EB84068C
:10487000B61D04E0601B06EB80060A366D1EAC42D6
:10488000B1DDBDE8FC8F2DE9F84F82460C461F468E
:10489000A346780701D0012000E0002000EBD700FC
:1048A00079084843C0B20090203A02F0FF09002680
:1048B00049E00C2F14D0102F19D0182F46D152498F
:1048C00009EBC90001EB8000855D4FF00008280668
:1048D00012D54E48214602885046FCF71EF913E0D7
:1048E0004B4909EB490001EB8000855DEDE7494844
:1048F00000EB0910855DE8E70A9828B9434821468E
:1049000042885046FCF709F96806050E641CA4B2FB
:104910003B484088A04219D9A4EB0B00B84209D10A
:104920005C460AF1010A1FFA8AFA354800885045A8
:104930000CD906E008F1010808F0FF08B8F1080FEB
:10494000C5D3761CF6B200988642B2D3BDE8F88F84
:104950000346012000E05843491EC9B2FBD270470C
:104960002DE9FF4F81B08046DDF838B092461D46F4
:1049700000260024A1464FEA5B071FE0281B401ECB
:10498000C1B20A20FFF7E4FFBAFBF0F00A21B0FB46
:10499000F1F201FB120026B9691E8C4201DA88B1DE
:1049A00001263030C2B207FB048080B25B46CDF8EE
:1049B00000900299FFF767FF641CE4B2AC42DDD3BC
:1049C00005B02CE607FB048080B25B462022CDF8C0
:1049D00000900299FFF757FFEEE72DE9FF4F81B0F6
:1049E0008046DDF83CA093461F464FF000090024A6
:1049F0000E980AF00105460830E0000000802142D0
:104A00004C0000200008006CCC840008220000202C
:104A1000687A0008DC7E0008381B401EC1B20A20FC
:104A2000FFF796FFBBFBF0F00A21B0FBF1F201FBB0
:104A30001200B9F1000F05D1791E8C4202DA80B163
:104A40004FF001093030C2B206FB048080B20095FD
:104A50000E9B0299FFF717FF641CE4B2BC42DBD344
:104A6000AEE75FEA0A6009D506FB048080B20095D4
:104A700030220E9B0299FFF706FFEDE706FB04804C
:104A800080B2009520220E9B0299FFF7FCFEE3E71F
:104A90002DE9F84F0446DDE90A760D4604F0FF08DB
:104AA00010191FFA80F958191FFA80FA4FF0000BFD
:104AB00011E04C4502D34446E81985B255450FD262
:104AC0003B4629462046CDF800B0FFF7DCFE04EB5C
:104AD000570084B2761C3278A2F120005E28E8D913
:104AE00034E7000030B587B00121022001F0DAF888
:104AF0000121042001F0CBF848208DF81B00C020D4
:104B0000ADF8180003208DF81A0006A9204800F01F
:104B1000B8FE0024ADF81240ADF80E404FF6FF701D
:104B2000ADF81000ADF80C408DF81440194D03A9F4
:104B3000284601F0F3FD684602F0B0F8ADF80040F9
:104B40000124ADF808406946284602F015F8042112
:104B5000ADF80010ADF808406946284602F00CF8A0
:104B600000231A460321284602F043F90121284672
:104B700002F0A5F807B030BD70B5064D284602F02A
:104B8000DDFA04B20021284602F0BAFA204670BDD0
:104B9000000801400004004030B587B001218802C0
:104BA00001F075F80121082001F071F84FF4004080
:104BB00000F0F0FF00248DF81B400220ADF8180033
:104BC00003208DF81A0006A96B4800F05AFE6B4DC1
:104BD000052301220921284601F034FB284601F073
:104BE0007BFA019404944FF4602103918DF80940FD
:104BF0008DF8084001218DF8141001A9284601F014
:104C000097FA0121284601F0BBFA284601F0DBFAA9
:104C1000284601F0DDFA0128FAD0284601F0DFFA33
:104C2000284601F0E1FA0128FAD007B030BD30B5CE
:104C300087B00121880201F02AF80121042001F047
:104C400026F84FF4004000F0A5FF00248DF81B402B
:104C50000220ADF8180003208DF81A0006A9464876
:104C600000F00FFE454D012205231146284601F0B4
:104C7000E9FA019404944FF4602103918DF80940FE
:104C80008DF8084001218DF8141001A9284601F083
:104C90004FFA0121284601F073FA284601F093FAF1
:104CA000284601F095FA0128FAD0284601F097FA33
:104CB000284601F099FA0128FAD0B6E710B586B077
:104CC0000121480200F0E3FF4FF4004000F062FFD2
:104CD0002B4C072301221021204601F0B3FA0021BA
:104CE000019104914FF4602203928DF809108DF820
:104CF000081001218DF8141001A9204601F018FABE
:104D0000012001F077FB0121204601F039FA20460D
:104D100001F059FA204601F05BFA0128FAD020464A
:104D200001F05DFA204601F05FFA0128FAD006B0E2
:104D300010BD10B5124C0121204601F05CFA022191
:104D4000204601F065FB0028F9D02046BDE8104060
:104D500001F0BEBA10B5094C0121204601F04BFA12
:104D60000221204601F054FB0028F9D02046BDE87E
:104D7000104001F0ADBA00000008014000280140D9
:104D80000024014010B56FF0040000F0A1FA2048A3
:104D900020490068B0FBF1F01F49C0B2087000EB79
:104DA0004002C2EBC0104FF6FF7202EAC00048801A
:104DB00010BD1949097848434FF0E02148610023AC
:104DC0008B61086940F0010008610869C20701D0E1
:104DD000C003FAD5086920F0010008618B617047B3
:104DE0000D49498848434FF0E021486100238B6119
:104DF000086940F0010008610869C20701D0C003DA
:104E0000FAD5086920F0010008618B617047000045
:104E10000C00002000127A00260000207047414953
:104E20000A885206FCD53F4AC1B2121D1180704754
:104E300070B586B00546012144F2040000F027FF5A
:104E40004FF40070ADF8140003248DF816401821BB
:104E50008DF81710344E05A9304600F012FD3115BB
:104E6000ADF8141004218DF8171005A9304600F094
:104E700008FD25208DF800008DF801408DF80240D6
:104E800001208DF80300684600F0DFF9019500204D
:104E9000ADF80800ADF80A00ADF80C00ADF8100050
:104EA0000C20ADF80E001F4C01A9204600F08EFF2B
:104EB000012240F22551204601F00FF80121204641
:104EC00000F0FFFF06B070BD70B5164C40F22551E2
:104ED000204601F0CFF800280ED0204601F056F809
:104EE000C1B2124A1088030406D444044FF00003F0
:104EF00007D50A2901D0138070BD40F4004010800E
:104F000070BD0D290AD00A4DC0F30D042955401C6F
:104F100080B21080C728F3D9138070BD40F4804060
:104F2000108070BD00380140000801402A000020B8
:104F30005A0000201FB50121042000F0B3FE294CC7
:104F4000204601F0F0FE0021ADF80A10ADF8061081
:104F500042F20F72ADF8082041F61F40ADF8040090
:104F60008DF80C1001A9204601F0D8FB0121204644
:104F700002F0EFF801221146204601F0BAFE1E2091
:104F80008DF8000001218DF8031002208DF801003A
:104F90008DF80210684600F058F90121204601F012
:104FA0008EFE1FBD70B50F4D0121284602F0D4F8CA
:104FB000012815D10C4AD2F8940178B10021C2F829
:104FC00094110A4C2178491C2170FFF7D5FD6080AF
:104FD0002846BDE87040012102F0CAB80121EEE781
:104FE00070BD000000080040000023423000002097
:104FF0007FB50121082000F04AFE0121084600F09B
:1050000046FE28268DF80F604FF48044ADF80C4022
:1050100003208DF80E0003A91B4800F032FC0E217E
:10502000012000F0EAFC019401258DF80A500024CB
:105030008DF8084008208DF8090001A801F01EFA3B
:105040008DF800608DF803508DF801408DF8024016
:10505000684600F0FAF87FBD10B54FF48044204652
:1050600001F05DFA01280DD10849D1F8940138B159
:105070000020C1F894012046BDE8104001F05DBA5F
:105080000120F6E710BD0000000C014000002342A3
:1050900030B587B00121480400F004FE012104204E
:1050A00000F0F5FD18208DF81B000420ADF8180065
:1050B00003248DF81A40564D06A9284600F0E1FB5E
:1050C00048218DF81B100821ADF818108DF81A40F2
:1050D00006A9284600F0D5FB4FF416500290002098
:1050E000ADF814000C21ADF81210ADF81000ADF8B9
:1050F0000E00ADF80C00474C02A9204600F066FEF9
:10510000012240F22551204600F0E7FE26218DF8CD
:10511000041001218DF807108DF805108DF8061088
:1051200001A800F092F80121204600F0CAFE07B065
:1051300030BD10B5374C0146204600F023FF8021DA
:10514000204600F08CFF0028F9D010BD70B5054650
:105150000E46002404E0285DFFF7EBFF641CA4B2B8
:10516000B442F8D370BD70B50546002403E0FFF7E4
:10517000E0FF641CE4B2285D0028F8D170BD03464E
:10518000012000E05843491E4A1CFBD170472DE91D
:10519000F04107460E4600240A250FE0311B491E48
:1051A0000A20FFF7ECFFB7FBF0F0B0FBF5F105FBD1
:1051B00011003030FFF7BDFF641CE4B2B442EDD300
:1051C000BDE8F08114484178012901D000207047E2
:1051D00000214170012070470F480078704770B57A
:1051E0000C4D40F225542146284600F043FF01288B
:1051F0000CD1284600F0CAFE074A107001205070FA
:1052000021462846BDE8704000F054BF70BD000044
:105210000008014000440040340000200648804758
:1052200006480047FEE7FEE7FEE7FEE7FEE7FEE78B
:10523000FEE7FEE7FEE7FEE7AD03000831010008E8
:105240002A4908432A490860704770B50F23C2787D
:1052500001260178002A1ED0254A126802F4E06275
:10526000C2F5E062120AC2F10404D3404578A540B9
:1052700082781A402A43120101F1E02181F80024CA
:10528000007800F01F018E404009800000F1E0200E
:10529000C0F8006170BD01F01F0086404809800021
:1052A00000F1E020C0F8806170BD124A1140014356
:1052B0000F48001F016070470D4A121D002903D0DE
:1052C0001168014311607047116881431160704794
:1052D0004FF0E021042804D0086920F004000861A0
:1052E0007047086940F00400086170470000FA0543
:1052F0000CED00E080FFFF1F8100A1F1C0410028FC
:105300000CD043F2D2020A60401C8000A0F1C040E1
:105310006FF070420260C1F8042170474FF02043E3
:1053200043F2DB021A60EFE710B5182440234FF078
:1053300020414FF0FC32102805D041F8804F4B60DF
:105340008A60CA6010BD0C664B668A66CA6610BD6C
:10535000F74818210160002141604FF0FC31816065
:10536000C1600161704710B5D0E901121143D0E965
:1053700003231A4311434269114382691143C269ED
:105380001143026A1143426A1143826A1143C26A9D
:105390001143026B114302689200A2F1C0421160F6
:1053A0008168082907D101688900A1F1C0410A6814
:1053B00042F040020A60416BD1E9002342EA031245
:1053C0008B688C891B0243EA04431A430B8A42EA26
:1053D00003520B7D896942EA03620A430168491C52
:1053E0008900A1F1C0410A60C16AB1F5804F08D0BF
:1053F00000686FF070418000A0F1C040C0F8041157
:1054000010BD816BD1E9002342EA03128B680C8A3C
:105410001B0243EA04531A430B7D896942EA036283
:1054200000680A438000A0F1C040C0F8042110BD0C
:1054300030B5D0E901121143D0E903231A431143D7
:10544000426941EA4221826941EA423141F008045D
:10545000C169D1E9002342EA03220B89097B1B04BD
:1054600043EA01610A43016AD1E9003543EA0523B1
:105470000D89097B2D0445EA01610B4301684FF05A
:105480002040102904D040F8804F8260C36030BDB6
:1054900004668266C36630BD10B5D0E9001241EAE9
:1054A00042218268102343EA42321143A04A11602C
:1054B000C168D1E9003443EA04230C89097B240440
:1054C00044EA01610B4393600169D1E9003443EA86
:1054D00004230C89097B240444EA01610B43D36053
:1054E0004069D0E9001341EA03210389007B1B04D2
:1054F00043EA00600143116110BD10B50021016055
:10550000022242608160C160016141618161C161CB
:105510000162D202426252008262C1620163436B45
:105520000F221A60436B5A60446BFF23A360446BE5
:10553000E260446B2261446B6261446BA161846BE5
:105540002260846B6260846BA360836BDA60836B20
:105550001A61836B5A61806B816110BD10210160FB
:10556000002141608160C160016141618161C26966
:10557000FC211160C2695160C2699160C269D16049
:10558000026A1160026A5160026A9160006AC16039
:1055900070470021016041608160C268FC21116098
:1055A000C2685160C2689160C268D16002691160CE
:1055B00002695160026991600269D16042691160BB
:1055C00042695160426991604069C16070478000E2
:1055D000A0F1C040002904D0016841F00101016040
:1055E00070470168534A1140016070474FF02042F4
:1055F00000290CD0102805D052F8800F40F004008C
:1056000010607047106E40F0040010667047494902
:10561000C91E102804D052F8800F0840106070474F
:10562000106E0840106670474FF02041002805D0EA
:1056300051F8A00F40F004000860704751F8A00F27
:105640003C4AD21E1040086070474FF020420029AB
:105650000CD0102805D052F8800F40F040001060A8
:105660007047106E40F040001066704731493F3976
:10567000102804D052F8800F084010607047106E58
:105680000840106670474FF02041102802D0D1F832
:1056900094007047486F704710B54FF480744FF016
:1056A0002043002A11D0102806D0A04208D153F878
:1056B000840F0843186010BD586E0843586610BD2B
:1056C00053F8A40F0843186010BD102806D0A0425C
:1056D00008D153F8840F8843186010BD586E884372
:1056E000586610BD53F8A40F8843186010BD0346D8
:1056F00000204FF02042102B08D0B3F5807F07D058
:10570000D2F8A4200A4200D001207047526EF9E777
:10571000D2F88420F6E74FF0204210280CD0B0F5E4
:10572000807F0DD052F8A40F8843106070470000AE
:10573000A00000A0FEFF0F00506E88435066F5E702
:1057400052F8840F88431060F0E7034600204FF0C2
:105750002042102B0ED0B3F5807F0DD0D2F8A420BC
:1057600002EA010302EAD101002BDFD00029DDD0DB
:105770000120DBE7526EF3E7D2F88420F0E74FF028
:105780002042102808D0B0F5807F0AD052F8A40F2C
:1057900020EAD1001060C9E7506E20EAD1005066BF
:1057A000C4E752F8840F20EAD1001060BEE7000081
:1057B00010B59C49884209D10121042000F07DFAEE
:1057C0000021BDE81040042000F077BA96498842D5
:1057D00009D10121082000F070FA0021BDE8104035
:1057E000082000F06ABA9149884209D101211020AD
:1057F00000F063FA0021BDE81040102000F05DBA0F
:105800008B49884209D10121202000F056FA00215D
:10581000BDE81040202000F050BA8649884209D1E6
:105820000121402000F049FA0021BDE8104040204D
:1058300000F043BA8049884209D10121802000F05C
:105840003CFA0021BDE81040802000F036BA7B49C8
:1058500088420AD184150121204600F02EFA204604
:10586000BDE81040002100F028BA10BD10B501219C
:10587000084600F022FA0021BDE81040012000F0A7
:105880001CBA2DE9F0410022CC7804F00F03E406A5
:1058900001D58C7823430C784FF00F0714F0FF0FDD
:1058A0004FF0010C1CD005680CFA02F40E8826405B
:1058B000A64211D1960007FA06F825EA080503FA70
:1058C00006F848EA0505CE78282E02D0482E02D0E8
:1058D00002E0446100E00461521C082AE4D3056040
:1058E0000A88FF2A1ED94568002202F108060CFA30
:1058F00006F40E882640A64210D1960007FA06F854
:1059000025EA080503FA06F848EA0505CE78282EA8
:1059100000D14461CE78482E00D10461521C082A7F
:10592000E3D34560BDE8F0814FF6FF7101800221AD
:1059300081700421C17070470246002092680A42BB
:1059400000D001207047806880B270470246002076
:10595000D2680A4200D001207047C06880B2704708
:105960000161704741617047002A01D001617047B1
:1059700041617047C160704741F48032826181614A
:10598000826181698069704710B52D4B1A684FF6A6
:105990008074224042EA00100843186010BD294973
:1059A000C8617047F0B5264C002801DAE36900E0D1
:1059B0006368C0F30346420D120185B2C0F301577C
:1059C0009540032F07D0C2020CD50322B240934367
:1059D00043F0706209E023F07062636823F0706343
:1059E000636002E0AB4343F0706201B12A430028D8
:1059F00001DAE261F0BD6260F0BD10B58A07120FF6
:105A00000F23934021F003040D4921448C689C43EB
:105A10008C608B68904003438B6010BD0949DC317A
:105A20000860704700080140000C01400010014070
:105A30000014014000180140001C014000200140FA
:105A40000000014000002042B448016841F001011B
:105A500001604168B24A114041600168B14A114099
:105A60000160016821F480210160416821F4FE0198
:105A700041604FF41F0181607047A8490A6822F411
:105A800080320A600A6822F480220A60B0F5803F02
:105A900007D0B0F5802F03D1086840F4A02008603B
:105AA0007047086840F48030086070470346002063
:105AB00059099A4A01290AD002290AD0516A03F0E9
:105AC0001F02012393400B4200D001207047116850
:105AD000F5E7116AF3E718B5002000904FF4A064D1
